{
  "contractName": "Ebay",
  "abi": [
    {
      "inputs": [
        {
          "internalType": "string",
          "name": "_name",
          "type": "string"
        },
        {
          "internalType": "string",
          "name": "_description",
          "type": "string"
        },
        {
          "internalType": "uint256",
          "name": "_minprice",
          "type": "uint256"
        }
      ],
      "name": "createAuction",
      "outputs": [],
      "stateMutability": "nonpayable",
      "type": "function"
    },
    {
      "inputs": [
        {
          "internalType": "uint256",
          "name": "_auctionid",
          "type": "uint256"
        }
      ],
      "name": "createOffer",
      "outputs": [],
      "stateMutability": "payable",
      "type": "function",
      "payable": true
    },
    {
      "inputs": [
        {
          "internalType": "uint256",
          "name": "_auctionId",
          "type": "uint256"
        }
      ],
      "name": "transaction",
      "outputs": [],
      "stateMutability": "nonpayable",
      "type": "function"
    },
    {
      "inputs": [],
      "name": "getAuctions",
      "outputs": [
        {
          "components": [
            {
              "internalType": "uint256",
              "name": "id",
              "type": "uint256"
            },
            {
              "internalType": "address payable",
              "name": "seller",
              "type": "address"
            },
            {
              "internalType": "string",
              "name": "name",
              "type": "string"
            },
            {
              "internalType": "string",
              "name": "description",
              "type": "string"
            },
            {
              "internalType": "uint256",
              "name": "min",
              "type": "uint256"
            },
            {
              "internalType": "uint256",
              "name": "bestofferid",
              "type": "uint256"
            },
            {
              "internalType": "uint256[]",
              "name": "offersid",
              "type": "uint256[]"
            }
          ],
          "internalType": "struct Ebay.Auction[]",
          "name": "",
          "type": "tuple[]"
        }
      ],
      "stateMutability": "view",
      "type": "function",
      "constant": true
    }
  ],
  "bytecode": "0x60806040526001600455600160055534801561001a57600080fd5b506114448061002a6000396000f3fe60806040526004361061003f5760003560e01c806346bd084114610044578063a269993d1461006d578063d7c0691914610089578063ddf20706146100b4575b600080fd5b34801561005057600080fd5b5061006b60048036038101906100669190610ad4565b6100dd565b005b61008760048036038101906100829190610ad4565b610261565b005b34801561009557600080fd5b5061009e61045b565b6040516100ab9190610dfc565b60405180910390f35b3480156100c057600080fd5b506100db60048036038101906100d69190610e83565b610726565b005b6000806000838152602001908152602001600020905060006001600083600501548152602001908152602001600020905060005b82600601805490508110156101ec57600083600601828154811061013857610137610f18565b5b90600052602060002001549050836005015481146101d85760006001600083815260200190815260200160002090508060020160009054906101000a900473ffffffffffffffffffffffffffffffffffffffff1673ffffffffffffffffffffffffffffffffffffffff166108fc82600301549081150290604051600060405180830381858888f193505050501580156101d5573d6000803e3d6000fd5b50505b5080806101e490610f76565b915050610111565b508160010160009054906101000a900473ffffffffffffffffffffffffffffffffffffffff1673ffffffffffffffffffffffffffffffffffffffff166108fc82600301549081150290604051600060405180830381858888f1935050505015801561025b573d6000803e3d6000fd5b50505050565b60008060008381526020019081526020016000209050600060016000836005015481526020019081526020016000209050816004015434101580156102a95750806003015434115b6102e8576040517f08c379a00000000000000000000000000000000000000000000000000000000081526004016102df9061101b565b60405180910390fd5b6005548260050181905550816006016005549080600181540180825580915050600190039060005260206000200160009091909190915055604051806080016040528060055481526020018481526020013373ffffffffffffffffffffffffffffffffffffffff16815260200134815250600160006005548152602001908152602001600020600082015181600001556020820151816001015560408201518160020160006101000a81548173ffffffffffffffffffffffffffffffffffffffff021916908373ffffffffffffffffffffffffffffffffffffffff16021790555060608201518160030155905050600360003373ffffffffffffffffffffffffffffffffffffffff1673ffffffffffffffffffffffffffffffffffffffff16815260200190815260200160002060055490806001815401808255809150506001900390600052602060002001600090919091909150556005600081548092919061045190610f76565b9190505550505050565b60606000600160045461046e919061103b565b67ffffffffffffffff8111156104875761048661106f565b5b6040519080825280602002602001820160405280156104c057816020015b6104ad6109d7565b8152602001906001900390816104a55790505b5090506000600190505b60045481101561071e576000808281526020019081526020016000206040518060e0016040529081600082015481526020016001820160009054906101000a900473ffffffffffffffffffffffffffffffffffffffff1673ffffffffffffffffffffffffffffffffffffffff1673ffffffffffffffffffffffffffffffffffffffff168152602001600282018054610561906110cd565b80601f016020809104026020016040519081016040528092919081815260200182805461058d906110cd565b80156105da5780601f106105af576101008083540402835291602001916105da565b820191906000526020600020905b8154815290600101906020018083116105bd57829003601f168201915b505050505081526020016003820180546105f3906110cd565b80601f016020809104026020016040519081016040528092919081815260200182805461061f906110cd565b801561066c5780601f106106415761010080835404028352916020019161066c565b820191906000526020600020905b81548152906001019060200180831161064f57829003601f168201915b505050505081526020016004820154815260200160058201548152602001600682018054806020026020016040519081016040528092919081815260200182805480156106d857602002820191906000526020600020905b8154815260200190600101908083116106c4575b505050505081525050826001836106ef919061103b565b81518110610700576106ff610f18565b5b6020026020010181905250808061071690610f76565b9150506104ca565b508091505090565b60008111610769576040517f08c379a000000000000000000000000000000000000000000000000000000000815260040161076090611170565b60405180910390fd5b60008067ffffffffffffffff8111156107855761078461106f565b5b6040519080825280602002602001820160405280156107b35781602001602082028036833780820191505090505b5090506040518060e0016040528060045481526020013373ffffffffffffffffffffffffffffffffffffffff16815260200187878080601f016020809104026020016040519081016040528093929190818152602001838380828437600081840152601f19601f82011690508083019250505050505050815260200185858080601f016020809104026020016040519081016040528093929190818152602001838380828437600081840152601f19601f820116905080830192505050505050508152602001838152602001600081526020018281525060008060045481526020019081526020016000206000820151816000015560208201518160010160006101000a81548173ffffffffffffffffffffffffffffffffffffffff021916908373ffffffffffffffffffffffffffffffffffffffff1602179055506040820151816002019081610904919061133c565b50606082015181600301908161091a919061133c565b506080820151816004015560a0820151816005015560c082015181600601908051906020019061094b929190610a2a565b50905050600260003373ffffffffffffffffffffffffffffffffffffffff1673ffffffffffffffffffffffffffffffffffffffff1681526020019081526020016000206004549080600181540180825580915050600190039060005260206000200160009091909190915055600460008154809291906109ca90610f76565b9190505550505050505050565b6040518060e0016040528060008152602001600073ffffffffffffffffffffffffffffffffffffffff16815260200160608152602001606081526020016000815260200160008152602001606081525090565b828054828255906000526020600020908101928215610a66579160200282015b82811115610a65578251825591602001919060010190610a4a565b5b509050610a739190610a77565b5090565b5b80821115610a90576000816000905550600101610a78565b5090565b600080fd5b600080fd5b6000819050919050565b610ab181610a9e565b8114610abc57600080fd5b50565b600081359050610ace81610aa8565b92915050565b600060208284031215610aea57610ae9610a94565b5b6000610af884828501610abf565b91505092915050565b600081519050919050565b600082825260208201905092915050565b6000819050602082019050919050565b610b3681610a9e565b82525050565b600073ffffffffffffffffffffffffffffffffffffffff82169050919050565b6000610b6782610b3c565b9050919050565b610b7781610b5c565b82525050565b600081519050919050565b600082825260208201905092915050565b60005b83811015610bb7578082015181840152602081019050610b9c565b60008484015250505050565b6000601f19601f8301169050919050565b6000610bdf82610b7d565b610be98185610b88565b9350610bf9818560208601610b99565b610c0281610bc3565b840191505092915050565b600081519050919050565b600082825260208201905092915050565b6000819050602082019050919050565b6000610c458383610b2d565b60208301905092915050565b6000602082019050919050565b6000610c6982610c0d565b610c738185610c18565b9350610c7e83610c29565b8060005b83811015610caf578151610c968882610c39565b9750610ca183610c51565b925050600181019050610c82565b5085935050505092915050565b600060e083016000830151610cd46000860182610b2d565b506020830151610ce76020860182610b6e565b5060408301518482036040860152610cff8282610bd4565b91505060608301518482036060860152610d198282610bd4565b9150506080830151610d2e6080860182610b2d565b5060a0830151610d4160a0860182610b2d565b5060c083015184820360c0860152610d598282610c5e565b9150508091505092915050565b6000610d728383610cbc565b905092915050565b6000602082019050919050565b6000610d9282610b01565b610d9c8185610b0c565b935083602082028501610dae85610b1d565b8060005b85811015610dea5784840389528151610dcb8582610d66565b9450610dd683610d7a565b925060208a01995050600181019050610db2565b50829750879550505050505092915050565b60006020820190508181036000830152610e168184610d87565b905092915050565b600080fd5b600080fd5b600080fd5b60008083601f840112610e4357610e42610e1e565b5b8235905067ffffffffffffffff811115610e6057610e5f610e23565b5b602083019150836001820283011115610e7c57610e7b610e28565b5b9250929050565b600080600080600060608688031215610e9f57610e9e610a94565b5b600086013567ffffffffffffffff811115610ebd57610ebc610a99565b5b610ec988828901610e2d565b9550955050602086013567ffffffffffffffff811115610eec57610eeb610a99565b5b610ef888828901610e2d565b93509350506040610f0b88828901610abf565b9150509295509295909350565b7f4e487b7100000000000000000000000000000000000000000000000000000000600052603260045260246000fd5b7f4e487b7100000000000000000000000000000000000000000000000000000000600052601160045260246000fd5b6000610f8182610a9e565b91507fffffffffffffffffffffffffffffffffffffffffffffffffffffffffffffffff8203610fb357610fb2610f47565b5b600182019050919050565b600082825260208201905092915050565b7f416d6f756e74204e6f742053756666696369656e740000000000000000000000600082015250565b6000611005601583610fbe565b915061101082610fcf565b602082019050919050565b6000602082019050818103600083015261103481610ff8565b9050919050565b600061104682610a9e565b915061105183610a9e565b925082820390508181111561106957611068610f47565b5b92915050565b7f4e487b7100000000000000000000000000000000000000000000000000000000600052604160045260246000fd5b7f4e487b7100000000000000000000000000000000000000000000000000000000600052602260045260246000fd5b600060028204905060018216806110e557607f821691505b6020821081036110f8576110f761109e565b5b50919050565b7f4d696e696d756d2050726963652043616e74206265204e65676174697665206f60008201527f72205a65726f0000000000000000000000000000000000000000000000000000602082015250565b600061115a602683610fbe565b9150611165826110fe565b604082019050919050565b600060208201905081810360008301526111898161114d565b9050919050565b60008190508160005260206000209050919050565b60006020601f8301049050919050565b600082821b905092915050565b6000600883026111f27fffffffffffffffffffffffffffffffffffffffffffffffffffffffffffffffff826111b5565b6111fc86836111b5565b95508019841693508086168417925050509392505050565b6000819050919050565b600061123961123461122f84610a9e565b611214565b610a9e565b9050919050565b6000819050919050565b6112538361121e565b61126761125f82611240565b8484546111c2565b825550505050565b600090565b61127c61126f565b61128781848461124a565b505050565b5b818110156112ab576112a0600082611274565b60018101905061128d565b5050565b601f8211156112f0576112c181611190565b6112ca846111a5565b810160208510156112d9578190505b6112ed6112e5856111a5565b83018261128c565b50505b505050565b600082821c905092915050565b6000611313600019846008026112f5565b1980831691505092915050565b600061132c8383611302565b9150826002028217905092915050565b61134582610b7d565b67ffffffffffffffff81111561135e5761135d61106f565b5b61136882546110cd565b6113738282856112af565b600060209050601f8311600181146113a65760008415611394578287015190505b61139e8582611320565b865550611406565b601f1984166113b486611190565b60005b828110156113dc578489015182556001820191506020850194506020810190506113b7565b868310156113f957848901516113f5601f891682611302565b8355505b6001600288020188555050505b50505050505056fea2646970667358221220663c7af12299e2ed8101966ce28c0c233b1bb5e218b9bae1be58f6a19883924a64736f6c63430008110033",
  "immutableReferences": {},
  "source": "//SPDX-License-Identifier: UNLICENSED\r\n\r\npragma solidity >= 0.5.0 < 0.9.0;\r\n\r\ncontract Ebay\r\n{\r\n    \r\n    struct Auction\r\n    {\r\n        uint id;\r\n        address payable seller;\r\n        string name;\r\n        string description;\r\n        uint min;\r\n        uint bestofferid;\r\n        uint[] offersid;\r\n    }\r\n  \r\n   struct Offers\r\n   {\r\n       uint id;\r\n       uint auctionid;\r\n       address payable buyer;\r\n       uint price;\r\n   }\r\n\r\n   mapping(uint=>Auction) private auctions;\r\n   mapping(uint=>Offers) private offers;\r\n   mapping(address=>uint[]) private auctionList;\r\n   mapping(address=>uint[]) private offersList;\r\n   uint private newAuctionId=1;\r\n   uint private newOffersId=1;\r\n\r\n   function createAuction(string calldata _name,string calldata _description,uint _minprice)external\r\n   {\r\n     require(_minprice>0,\"Minimum Price Cant be Negative or Zero\");\r\n     uint[] memory offersids=new uint[](0);\r\n     auctions[newAuctionId]=Auction(newAuctionId,payable(msg.sender),_name,_description,_minprice,0,offersids);\r\n     auctionList[msg.sender].push(newAuctionId);\r\n     newAuctionId++;\r\n   }\r\n\r\n   function createOffer(uint _auctionid)external payable{\r\n       Auction storage auction=auctions[_auctionid];\r\n       Offers storage BestOffer=offers[auction.bestofferid];\r\n       require(msg.value>=auction.min && msg.value > BestOffer.price,\"Amount Not Sufficient\");\r\n       auction.bestofferid=newOffersId;\r\n       auction.offersid.push(newOffersId);\r\n       offers[newOffersId]=Offers(newOffersId,_auctionid,payable(msg.sender),msg.value);\r\n       offersList[msg.sender].push(newOffersId);\r\n       newOffersId++;\r\n   }\r\n   \r\n   function transaction(uint _auctionId)external \r\n   {\r\n       Auction storage auction=auctions[_auctionId];\r\n       Offers storage BestOffer=offers[auction.bestofferid];\r\n\r\n       for(uint i=0;i<auction.offersid.length;i++)\r\n       {\r\n           uint offersid=auction.offersid[i];\r\n           if(offersid!=auction.bestofferid)\r\n           {\r\n               Offers storage offer=offers[offersid];\r\n               offer.buyer.transfer(offer.price);\r\n           }\r\n\r\n       }\r\n       auction.seller.transfer(BestOffer.price);\r\n   }\r\n\r\n\r\n\r\n   function getAuctions()external view returns(Auction[] memory)\r\n   {\r\n       Auction[] memory _auctions=new Auction[](newAuctionId-1);\r\n\r\n       for(uint i=1;i<newAuctionId;i++)\r\n       {\r\n           _auctions[i-1]=auctions[i];\r\n       }\r\n       return _auctions;\r\n   }\r\n   \r\n}",
  "sourcePath": "C:\\Users\\hydrarichie\\Desktop\\Smart Contract Testing\\contracts\\Ebay.sol",
  "compiler": {
    "name": "solc",
    "version": "0.8.17+commit.8df45f5f.Emscripten.clang"
  },
  "schemaVersion": "3.4.10",
  "updatedAt": "2022-09-24T14:30:35.703Z",
  "networkType": "ethereum",
  "devdoc": {
    "kind": "dev",
    "methods": {},
    "version": 1
  },
  "userdoc": {
    "kind": "user",
    "methods": {},
    "version": 1
  }
}